{
  "contractName": "HKDT",
  "abi": [
    {
      "inputs": [
        {
          "internalType": "address",
          "name": "usdcAddress",
          "type": "address"
        }
      ],
      "stateMutability": "nonpayable",
      "type": "constructor"
    },
    {
      "anonymous": false,
      "inputs": [
        {
          "indexed": true,
          "internalType": "address",
          "name": "owner",
          "type": "address"
        },
        {
          "indexed": true,
          "internalType": "address",
          "name": "spender",
          "type": "address"
        },
        {
          "indexed": false,
          "internalType": "uint256",
          "name": "value",
          "type": "uint256"
        }
      ],
      "name": "Approval",
      "type": "event"
    },
    {
      "anonymous": false,
      "inputs": [
        {
          "indexed": true,
          "internalType": "address",
          "name": "dst",
          "type": "address"
        },
        {
          "indexed": false,
          "internalType": "uint256",
          "name": "wad",
          "type": "uint256"
        }
      ],
      "name": "Deposit",
      "type": "event"
    },
    {
      "anonymous": false,
      "inputs": [
        {
          "indexed": true,
          "internalType": "address",
          "name": "from",
          "type": "address"
        },
        {
          "indexed": true,
          "internalType": "address",
          "name": "to",
          "type": "address"
        },
        {
          "indexed": false,
          "internalType": "uint256",
          "name": "value",
          "type": "uint256"
        }
      ],
      "name": "Transfer",
      "type": "event"
    },
    {
      "anonymous": false,
      "inputs": [
        {
          "indexed": true,
          "internalType": "address",
          "name": "src",
          "type": "address"
        },
        {
          "indexed": false,
          "internalType": "uint256",
          "name": "wad",
          "type": "uint256"
        }
      ],
      "name": "Withdrawal",
      "type": "event"
    },
    {
      "inputs": [
        {
          "internalType": "address",
          "name": "owner",
          "type": "address"
        },
        {
          "internalType": "address",
          "name": "spender",
          "type": "address"
        }
      ],
      "name": "allowance",
      "outputs": [
        {
          "internalType": "uint256",
          "name": "",
          "type": "uint256"
        }
      ],
      "stateMutability": "view",
      "type": "function"
    },
    {
      "inputs": [
        {
          "internalType": "address",
          "name": "spender",
          "type": "address"
        },
        {
          "internalType": "uint256",
          "name": "amount",
          "type": "uint256"
        }
      ],
      "name": "approve",
      "outputs": [
        {
          "internalType": "bool",
          "name": "",
          "type": "bool"
        }
      ],
      "stateMutability": "nonpayable",
      "type": "function"
    },
    {
      "inputs": [
        {
          "internalType": "address",
          "name": "account",
          "type": "address"
        }
      ],
      "name": "balanceOf",
      "outputs": [
        {
          "internalType": "uint256",
          "name": "",
          "type": "uint256"
        }
      ],
      "stateMutability": "view",
      "type": "function"
    },
    {
      "inputs": [
        {
          "internalType": "address",
          "name": "spender",
          "type": "address"
        },
        {
          "internalType": "uint256",
          "name": "subtractedValue",
          "type": "uint256"
        }
      ],
      "name": "decreaseAllowance",
      "outputs": [
        {
          "internalType": "bool",
          "name": "",
          "type": "bool"
        }
      ],
      "stateMutability": "nonpayable",
      "type": "function"
    },
    {
      "inputs": [
        {
          "internalType": "address",
          "name": "spender",
          "type": "address"
        },
        {
          "internalType": "uint256",
          "name": "addedValue",
          "type": "uint256"
        }
      ],
      "name": "increaseAllowance",
      "outputs": [
        {
          "internalType": "bool",
          "name": "",
          "type": "bool"
        }
      ],
      "stateMutability": "nonpayable",
      "type": "function"
    },
    {
      "inputs": [],
      "name": "name",
      "outputs": [
        {
          "internalType": "string",
          "name": "",
          "type": "string"
        }
      ],
      "stateMutability": "view",
      "type": "function"
    },
    {
      "inputs": [],
      "name": "symbol",
      "outputs": [
        {
          "internalType": "string",
          "name": "",
          "type": "string"
        }
      ],
      "stateMutability": "view",
      "type": "function"
    },
    {
      "inputs": [],
      "name": "totalSupply",
      "outputs": [
        {
          "internalType": "uint256",
          "name": "",
          "type": "uint256"
        }
      ],
      "stateMutability": "view",
      "type": "function"
    },
    {
      "inputs": [
        {
          "internalType": "address",
          "name": "to",
          "type": "address"
        },
        {
          "internalType": "uint256",
          "name": "amount",
          "type": "uint256"
        }
      ],
      "name": "transfer",
      "outputs": [
        {
          "internalType": "bool",
          "name": "",
          "type": "bool"
        }
      ],
      "stateMutability": "nonpayable",
      "type": "function"
    },
    {
      "inputs": [
        {
          "internalType": "address",
          "name": "from",
          "type": "address"
        },
        {
          "internalType": "address",
          "name": "to",
          "type": "address"
        },
        {
          "internalType": "uint256",
          "name": "amount",
          "type": "uint256"
        }
      ],
      "name": "transferFrom",
      "outputs": [
        {
          "internalType": "bool",
          "name": "",
          "type": "bool"
        }
      ],
      "stateMutability": "nonpayable",
      "type": "function"
    },
    {
      "inputs": [],
      "name": "getUSDCAddress",
      "outputs": [
        {
          "internalType": "address",
          "name": "",
          "type": "address"
        }
      ],
      "stateMutability": "view",
      "type": "function"
    },
    {
      "inputs": [],
      "name": "getBalanceOnUSDC",
      "outputs": [
        {
          "internalType": "uint256",
          "name": "",
          "type": "uint256"
        }
      ],
      "stateMutability": "view",
      "type": "function"
    },
    {
      "inputs": [],
      "name": "getUSDCDecimals",
      "outputs": [
        {
          "internalType": "uint8",
          "name": "",
          "type": "uint8"
        }
      ],
      "stateMutability": "view",
      "type": "function"
    },
    {
      "inputs": [],
      "name": "getMessage",
      "outputs": [
        {
          "internalType": "string",
          "name": "",
          "type": "string"
        }
      ],
      "stateMutability": "pure",
      "type": "function"
    },
    {
      "inputs": [],
      "name": "decimals",
      "outputs": [
        {
          "internalType": "uint8",
          "name": "",
          "type": "uint8"
        }
      ],
      "stateMutability": "pure",
      "type": "function"
    },
    {
      "inputs": [
        {
          "internalType": "uint256",
          "name": "usdcAmount",
          "type": "uint256"
        }
      ],
      "name": "deposit",
      "outputs": [],
      "stateMutability": "nonpayable",
      "type": "function"
    },
    {
      "inputs": [
        {
          "internalType": "uint256",
          "name": "hkdtAmount",
          "type": "uint256"
        }
      ],
      "name": "withdraw",
      "outputs": [],
      "stateMutability": "nonpayable",
      "type": "function"
    }
  ],
  "bytecode": "0x60806040523480156200001157600080fd5b5060405162002739380380620027398339818101604052810190620000379190620001de565b6040518060400160405280601b81526020017f486f6e67204b6f6e6720446f6c6c617220537461626c65636f696e00000000008152506040518060400160405280600481526020017f484b4454000000000000000000000000000000000000000000000000000000008152508160039081620000b491906200048a565b508060049081620000c691906200048a565b50505080600560006101000a81548173ffffffffffffffffffffffffffffffffffffffff021916908373ffffffffffffffffffffffffffffffffffffffff160217905550600560009054906101000a900473ffffffffffffffffffffffffffffffffffffffff16600660006101000a81548173ffffffffffffffffffffffffffffffffffffffff021916908373ffffffffffffffffffffffffffffffffffffffff1602179055505062000571565b600080fd5b600073ffffffffffffffffffffffffffffffffffffffff82169050919050565b6000620001a68262000179565b9050919050565b620001b88162000199565b8114620001c457600080fd5b50565b600081519050620001d881620001ad565b92915050565b600060208284031215620001f757620001f662000174565b5b60006200020784828501620001c7565b91505092915050565b600081519050919050565b7f4e487b7100000000000000000000000000000000000000000000000000000000600052604160045260246000fd5b7f4e487b7100000000000000000000000000000000000000000000000000000000600052602260045260246000fd5b600060028204905060018216806200029257607f821691505b602082108103620002a857620002a76200024a565b5b50919050565b60008190508160005260206000209050919050565b60006020601f8301049050919050565b600082821b905092915050565b600060088302620003127fffffffffffffffffffffffffffffffffffffffffffffffffffffffffffffffff82620002d3565b6200031e8683620002d3565b95508019841693508086168417925050509392505050565b6000819050919050565b6000819050919050565b60006200036b620003656200035f8462000336565b62000340565b62000336565b9050919050565b6000819050919050565b62000387836200034a565b6200039f620003968262000372565b848454620002e0565b825550505050565b600090565b620003b6620003a7565b620003c38184846200037c565b505050565b5b81811015620003eb57620003df600082620003ac565b600181019050620003c9565b5050565b601f8211156200043a576200040481620002ae565b6200040f84620002c3565b810160208510156200041f578190505b620004376200042e85620002c3565b830182620003c8565b50505b505050565b600082821c905092915050565b60006200045f600019846008026200043f565b1980831691505092915050565b60006200047a83836200044c565b9150826002028217905092915050565b620004958262000210565b67ffffffffffffffff811115620004b157620004b06200021b565b5b620004bd825462000279565b620004ca828285620003ef565b600060209050601f831160018114620005025760008415620004ed578287015190505b620004f985826200046c565b86555062000569565b601f1984166200051286620002ae565b60005b828110156200053c5784890151825560018201915060208501945060208101905062000515565b868310156200055c578489015162000558601f8916826200044c565b8355505b6001600288020188555050505b505050505050565b6121b880620005816000396000f3fe608060405234801561001057600080fd5b506004361061010b5760003560e01c80635cea9c3f116100a2578063a9059cbb11610071578063a9059cbb146102d0578063b6b55f2514610300578063bc06e81d1461031c578063ce6d41de1461033a578063dd62ed3e146103585761010b565b80635cea9c3f1461023457806370a082311461025257806395d89b4114610282578063a457c2d7146102a05761010b565b80632e1a7d4d116100de5780632e1a7d4d146101ac578063313ce567146101c857806339509351146101e65780635c9abad5146102165761010b565b806306fdde0314610110578063095ea7b31461012e57806318160ddd1461015e57806323b872dd1461017c575b600080fd5b610118610388565b604051610125919061153a565b60405180910390f35b610148600480360381019061014391906115f5565b61041a565b6040516101559190611650565b60405180910390f35b61016661043d565b604051610173919061167a565b60405180910390f35b61019660048036038101906101919190611695565b610447565b6040516101a39190611650565b60405180910390f35b6101c660048036038101906101c191906116e8565b610476565b005b6101d0610687565b6040516101dd9190611731565b60405180910390f35b61020060048036038101906101fb91906115f5565b610690565b60405161020d9190611650565b60405180910390f35b61021e6106c7565b60405161022b919061167a565b60405180910390f35b61023c610771565b6040516102499190611731565b60405180910390f35b61026c6004803603810190610267919061174c565b610809565b604051610279919061167a565b60405180910390f35b61028a610851565b604051610297919061153a565b60405180910390f35b6102ba60048036038101906102b591906115f5565b6108e3565b6040516102c79190611650565b60405180910390f35b6102ea60048036038101906102e591906115f5565b61095a565b6040516102f79190611650565b60405180910390f35b61031a600480360381019061031591906116e8565b61097d565b005b610324610b90565b6040516103319190611788565b60405180910390f35b610342610bba565b60405161034f919061153a565b60405180910390f35b610372600480360381019061036d91906117a3565b610bf7565b60405161037f919061167a565b60405180910390f35b60606003805461039790611812565b80601f01602080910402602001604051908101604052809291908181526020018280546103c390611812565b80156104105780601f106103e557610100808354040283529160200191610410565b820191906000526020600020905b8154815290600101906020018083116103f357829003601f168201915b5050505050905090565b600080610425610c7e565b9050610432818585610c86565b600191505092915050565b6000600254905090565b600080610452610c7e565b905061045f858285610e4f565b61046a858585610edb565b60019150509392505050565b6000610573610483610687565b600a61048f91906119a5565b610565600660009054906101000a900473ffffffffffffffffffffffffffffffffffffffff1673ffffffffffffffffffffffffffffffffffffffff1663313ce5676040518163ffffffff1660e01b8152600401602060405180830381865afa1580156104ff573d6000803e3d6000fd5b505050506040513d601f19601f820116820180604052508101906105239190611a1c565b600a61052f91906119a5565b61055761030a61054960648961115190919063ffffffff16565b61116790919063ffffffff16565b61115190919063ffffffff16565b61116790919063ffffffff16565b9050610586610580610c7e565b8361117d565b600660009054906101000a900473ffffffffffffffffffffffffffffffffffffffff1673ffffffffffffffffffffffffffffffffffffffff1663a9059cbb6105cc610c7e565b836040518363ffffffff1660e01b81526004016105ea929190611a49565b6020604051808303816000875af1158015610609573d6000803e3d6000fd5b505050506040513d601f19601f8201168201806040525081019061062d9190611a9e565b50610636610c7e565b73ffffffffffffffffffffffffffffffffffffffff167f7fcf532c15f0a6db0bd6d0e038bea71d30d808c7d98cb3bf7268a95bf5081b658360405161067b919061167a565b60405180910390a25050565b60006012905090565b60008061069b610c7e565b90506106bc8185856106ad8589610bf7565b6106b79190611acb565b610c86565b600191505092915050565b6000600660009054906101000a900473ffffffffffffffffffffffffffffffffffffffff1673ffffffffffffffffffffffffffffffffffffffff166370a0823161070f610c7e565b6040518263ffffffff1660e01b815260040161072b9190611788565b602060405180830381865afa158015610748573d6000803e3d6000fd5b505050506040513d601f19601f8201168201806040525081019061076c9190611b14565b905090565b6000600660009054906101000a900473ffffffffffffffffffffffffffffffffffffffff1673ffffffffffffffffffffffffffffffffffffffff1663313ce5676040518163ffffffff1660e01b8152600401602060405180830381865afa1580156107e0573d6000803e3d6000fd5b505050506040513d601f19601f820116820180604052508101906108049190611a1c565b905090565b60008060008373ffffffffffffffffffffffffffffffffffffffff1673ffffffffffffffffffffffffffffffffffffffff168152602001908152602001600020549050919050565b60606004805461086090611812565b80601f016020809104026020016040519081016040528092919081815260200182805461088c90611812565b80156108d95780601f106108ae576101008083540402835291602001916108d9565b820191906000526020600020905b8154815290600101906020018083116108bc57829003601f168201915b5050505050905090565b6000806108ee610c7e565b905060006108fc8286610bf7565b905083811015610941576040517f08c379a000000000000000000000000000000000000000000000000000000000815260040161093890611bb3565b60405180910390fd5b61094e8286868403610c86565b60019250505092915050565b600080610965610c7e565b9050610972818585610edb565b600191505092915050565b600660009054906101000a900473ffffffffffffffffffffffffffffffffffffffff1673ffffffffffffffffffffffffffffffffffffffff166323b872dd6109c3610c7e565b30846040518463ffffffff1660e01b81526004016109e393929190611bd3565b6020604051808303816000875af1158015610a02573d6000803e3d6000fd5b505050506040513d601f19601f82011682018060405250810190610a269190611a9e565b506000610b24600660009054906101000a900473ffffffffffffffffffffffffffffffffffffffff1673ffffffffffffffffffffffffffffffffffffffff1663313ce5676040518163ffffffff1660e01b8152600401602060405180830381865afa158015610a99573d6000803e3d6000fd5b505050506040513d601f19601f82011682018060405250810190610abd9190611a1c565b600a610ac991906119a5565b610b16610ad4610687565b600a610ae091906119a5565b610b086064610afa61030a8961115190919063ffffffff16565b61116790919063ffffffff16565b61115190919063ffffffff16565b61116790919063ffffffff16565b9050610b37610b31610c7e565b8261134a565b610b3f610c7e565b73ffffffffffffffffffffffffffffffffffffffff167fe1fffcc4923d04b559f4d29a8bfc6cda04eb5b0d3c460751c2402c5c5cc9109c83604051610b84919061167a565b60405180910390a25050565b6000600560009054906101000a900473ffffffffffffffffffffffffffffffffffffffff16905090565b60606040518060400160405280601281526020017f7468697320697320484b44542076302e31330000000000000000000000000000815250905090565b6000600160008473ffffffffffffffffffffffffffffffffffffffff1673ffffffffffffffffffffffffffffffffffffffff16815260200190815260200160002060008373ffffffffffffffffffffffffffffffffffffffff1673ffffffffffffffffffffffffffffffffffffffff16815260200190815260200160002054905092915050565b600033905090565b600073ffffffffffffffffffffffffffffffffffffffff168373ffffffffffffffffffffffffffffffffffffffff1603610cf5576040517f08c379a0000000000000000000000000000000000000000000000000000000008152600401610cec90611c7c565b60405180910390fd5b600073ffffffffffffffffffffffffffffffffffffffff168273ffffffffffffffffffffffffffffffffffffffff1603610d64576040517f08c379a0000000000000000000000000000000000000000000000000000000008152600401610d5b90611d0e565b60405180910390fd5b80600160008573ffffffffffffffffffffffffffffffffffffffff1673ffffffffffffffffffffffffffffffffffffffff16815260200190815260200160002060008473ffffffffffffffffffffffffffffffffffffffff1673ffffffffffffffffffffffffffffffffffffffff168152602001908152602001600020819055508173ffffffffffffffffffffffffffffffffffffffff168373ffffffffffffffffffffffffffffffffffffffff167f8c5be1e5ebec7d5bd14f71427d1e84f3dd0314c0f7b2291e5b200ac8c7c3b92583604051610e42919061167a565b60405180910390a3505050565b6000610e5b8484610bf7565b90507fffffffffffffffffffffffffffffffffffffffffffffffffffffffffffffffff8114610ed55781811015610ec7576040517f08c379a0000000000000000000000000000000000000000000000000000000008152600401610ebe90611d7a565b60405180910390fd5b610ed48484848403610c86565b5b50505050565b600073ffffffffffffffffffffffffffffffffffffffff168373ffffffffffffffffffffffffffffffffffffffff1603610f4a576040517f08c379a0000000000000000000000000000000000000000000000000000000008152600401610f4190611e0c565b60405180910390fd5b600073ffffffffffffffffffffffffffffffffffffffff168273ffffffffffffffffffffffffffffffffffffffff1603610fb9576040517f08c379a0000000000000000000000000000000000000000000000000000000008152600401610fb090611e9e565b60405180910390fd5b610fc48383836114a0565b60008060008573ffffffffffffffffffffffffffffffffffffffff1673ffffffffffffffffffffffffffffffffffffffff1681526020019081526020016000205490508181101561104a576040517f08c379a000000000000000000000000000000000000000000000000000000000815260040161104190611f30565b60405180910390fd5b8181036000808673ffffffffffffffffffffffffffffffffffffffff1673ffffffffffffffffffffffffffffffffffffffff16815260200190815260200160002081905550816000808573ffffffffffffffffffffffffffffffffffffffff1673ffffffffffffffffffffffffffffffffffffffff168152602001908152602001600020600082825401925050819055508273ffffffffffffffffffffffffffffffffffffffff168473ffffffffffffffffffffffffffffffffffffffff167fddf252ad1be2c89b69c2b068fc378daa952ba7f163c4a11628f55a4df523b3ef84604051611138919061167a565b60405180910390a361114b8484846114a5565b50505050565b6000818361115f9190611f50565b905092915050565b600081836111759190611fc1565b905092915050565b600073ffffffffffffffffffffffffffffffffffffffff168273ffffffffffffffffffffffffffffffffffffffff16036111ec576040517f08c379a00000000000000000000000000000000000000000000000000000000081526004016111e390612064565b60405180910390fd5b6111f8826000836114a0565b60008060008473ffffffffffffffffffffffffffffffffffffffff1673ffffffffffffffffffffffffffffffffffffffff1681526020019081526020016000205490508181101561127e576040517f08c379a0000000000000000000000000000000000000000000000000000000008152600401611275906120f6565b60405180910390fd5b8181036000808573ffffffffffffffffffffffffffffffffffffffff1673ffffffffffffffffffffffffffffffffffffffff1681526020019081526020016000208190555081600260008282540392505081905550600073ffffffffffffffffffffffffffffffffffffffff168373ffffffffffffffffffffffffffffffffffffffff167fddf252ad1be2c89b69c2b068fc378daa952ba7f163c4a11628f55a4df523b3ef84604051611331919061167a565b60405180910390a3611345836000846114a5565b505050565b600073ffffffffffffffffffffffffffffffffffffffff168273ffffffffffffffffffffffffffffffffffffffff16036113b9576040517f08c379a00000000000000000000000000000000000000000000000000000000081526004016113b090612162565b60405180910390fd5b6113c5600083836114a0565b80600260008282546113d79190611acb565b92505081905550806000808473ffffffffffffffffffffffffffffffffffffffff1673ffffffffffffffffffffffffffffffffffffffff168152602001908152602001600020600082825401925050819055508173ffffffffffffffffffffffffffffffffffffffff16600073ffffffffffffffffffffffffffffffffffffffff167fddf252ad1be2c89b69c2b068fc378daa952ba7f163c4a11628f55a4df523b3ef83604051611488919061167a565b60405180910390a361149c600083836114a5565b5050565b505050565b505050565b600081519050919050565b600082825260208201905092915050565b60005b838110156114e45780820151818401526020810190506114c9565b60008484015250505050565b6000601f19601f8301169050919050565b600061150c826114aa565b61151681856114b5565b93506115268185602086016114c6565b61152f816114f0565b840191505092915050565b600060208201905081810360008301526115548184611501565b905092915050565b600080fd5b600073ffffffffffffffffffffffffffffffffffffffff82169050919050565b600061158c82611561565b9050919050565b61159c81611581565b81146115a757600080fd5b50565b6000813590506115b981611593565b92915050565b6000819050919050565b6115d2816115bf565b81146115dd57600080fd5b50565b6000813590506115ef816115c9565b92915050565b6000806040838503121561160c5761160b61155c565b5b600061161a858286016115aa565b925050602061162b858286016115e0565b9150509250929050565b60008115159050919050565b61164a81611635565b82525050565b60006020820190506116656000830184611641565b92915050565b611674816115bf565b82525050565b600060208201905061168f600083018461166b565b92915050565b6000806000606084860312156116ae576116ad61155c565b5b60006116bc868287016115aa565b93505060206116cd868287016115aa565b92505060406116de868287016115e0565b9150509250925092565b6000602082840312156116fe576116fd61155c565b5b600061170c848285016115e0565b91505092915050565b600060ff82169050919050565b61172b81611715565b82525050565b60006020820190506117466000830184611722565b92915050565b6000602082840312156117625761176161155c565b5b6000611770848285016115aa565b91505092915050565b61178281611581565b82525050565b600060208201905061179d6000830184611779565b92915050565b600080604083850312156117ba576117b961155c565b5b60006117c8858286016115aa565b92505060206117d9858286016115aa565b9150509250929050565b7f4e487b7100000000000000000000000000000000000000000000000000000000600052602260045260246000fd5b6000600282049050600182168061182a57607f821691505b60208210810361183d5761183c6117e3565b5b50919050565b7f4e487b7100000000000000000000000000000000000000000000000000000000600052601160045260246000fd5b60008160011c9050919050565b6000808291508390505b60018511156118c9578086048111156118a5576118a4611843565b5b60018516156118b45780820291505b80810290506118c285611872565b9450611889565b94509492505050565b6000826118e2576001905061199e565b816118f0576000905061199e565b816001811461190657600281146119105761193f565b600191505061199e565b60ff84111561192257611921611843565b5b8360020a91508482111561193957611938611843565b5b5061199e565b5060208310610133831016604e8410600b84101617156119745782820a90508381111561196f5761196e611843565b5b61199e565b611981848484600161187f565b9250905081840481111561199857611997611843565b5b81810290505b9392505050565b60006119b0826115bf565b91506119bb83611715565b92506119e87fffffffffffffffffffffffffffffffffffffffffffffffffffffffffffffffff84846118d2565b905092915050565b6119f981611715565b8114611a0457600080fd5b50565b600081519050611a16816119f0565b92915050565b600060208284031215611a3257611a3161155c565b5b6000611a4084828501611a07565b91505092915050565b6000604082019050611a5e6000830185611779565b611a6b602083018461166b565b9392505050565b611a7b81611635565b8114611a8657600080fd5b50565b600081519050611a9881611a72565b92915050565b600060208284031215611ab457611ab361155c565b5b6000611ac284828501611a89565b91505092915050565b6000611ad6826115bf565b9150611ae1836115bf565b9250828201905080821115611af957611af8611843565b5b92915050565b600081519050611b0e816115c9565b92915050565b600060208284031215611b2a57611b2961155c565b5b6000611b3884828501611aff565b91505092915050565b7f45524332303a2064656372656173656420616c6c6f77616e63652062656c6f7760008201527f207a65726f000000000000000000000000000000000000000000000000000000602082015250565b6000611b9d6025836114b5565b9150611ba882611b41565b604082019050919050565b60006020820190508181036000830152611bcc81611b90565b9050919050565b6000606082019050611be86000830186611779565b611bf56020830185611779565b611c02604083018461166b565b949350505050565b7f45524332303a20617070726f76652066726f6d20746865207a65726f2061646460008201527f7265737300000000000000000000000000000000000000000000000000000000602082015250565b6000611c666024836114b5565b9150611c7182611c0a565b604082019050919050565b60006020820190508181036000830152611c9581611c59565b9050919050565b7f45524332303a20617070726f766520746f20746865207a65726f20616464726560008201527f7373000000000000000000000000000000000000000000000000000000000000602082015250565b6000611cf86022836114b5565b9150611d0382611c9c565b604082019050919050565b60006020820190508181036000830152611d2781611ceb565b9050919050565b7f45524332303a20696e73756666696369656e7420616c6c6f77616e6365000000600082015250565b6000611d64601d836114b5565b9150611d6f82611d2e565b602082019050919050565b60006020820190508181036000830152611d9381611d57565b9050919050565b7f45524332303a207472616e736665722066726f6d20746865207a65726f20616460008201527f6472657373000000000000000000000000000000000000000000000000000000602082015250565b6000611df66025836114b5565b9150611e0182611d9a565b604082019050919050565b60006020820190508181036000830152611e2581611de9565b9050919050565b7f45524332303a207472616e7366657220746f20746865207a65726f206164647260008201527f6573730000000000000000000000000000000000000000000000000000000000602082015250565b6000611e886023836114b5565b9150611e9382611e2c565b604082019050919050565b60006020820190508181036000830152611eb781611e7b565b9050919050565b7f45524332303a207472616e7366657220616d6f756e742065786365656473206260008201527f616c616e63650000000000000000000000000000000000000000000000000000602082015250565b6000611f1a6026836114b5565b9150611f2582611ebe565b604082019050919050565b60006020820190508181036000830152611f4981611f0d565b9050919050565b6000611f5b826115bf565b9150611f66836115bf565b9250828202611f74816115bf565b91508282048414831517611f8b57611f8a611843565b5b5092915050565b7f4e487b7100000000000000000000000000000000000000000000000000000000600052601260045260246000fd5b6000611fcc826115bf565b9150611fd7836115bf565b925082611fe757611fe6611f92565b5b828204905092915050565b7f45524332303a206275726e2066726f6d20746865207a65726f2061646472657360008201527f7300000000000000000000000000000000000000000000000000000000000000602082015250565b600061204e6021836114b5565b915061205982611ff2565b604082019050919050565b6000602082019050818103600083015261207d81612041565b9050919050565b7f45524332303a206275726e20616d6f756e7420657863656564732062616c616e60008201527f6365000000000000000000000000000000000000000000000000000000000000602082015250565b60006120e06022836114b5565b91506120eb82612084565b604082019050919050565b6000602082019050818103600083015261210f816120d3565b9050919050565b7f45524332303a206d696e7420746f20746865207a65726f206164647265737300600082015250565b600061214c601f836114b5565b915061215782612116565b602082019050919050565b6000602082019050818103600083015261217b8161213f565b905091905056fea2646970667358221220745443cdc6e3ca6cf8f50a5eaec7425f8b5f7f4f7c8f21c7526f0a726b7d313f64736f6c63430008110033",
  "immutableReferences": {},
  "source": "// SPDX-License-Identifier: MIT\npragma solidity >=0.4.22 <0.9.0;\n\nimport \"@openzeppelin/contracts/token/ERC20/ERC20.sol\";\nimport \"@openzeppelin/contracts/utils/math/SafeMath.sol\";\n\ncontract HKDT is ERC20 {\n  using SafeMath for uint256;\n\n  string private constant _name = \"Hong Kong Dollar Stablecoin\";\n  string private constant _symbol = \"HKDT\";\n  string private constant _message = \"this is HKDT v0.13\"; \n  uint256 private constant USDC_TO_HKDT_RATE = 778;\n  uint256 private constant USDC_TO_HKDT_DECIMALS = 100;\n  address private _usdcAddress;\n  ERC20 private _usdcContract;\n\n  event Deposit(address indexed dst, uint wad);\n  event Withdrawal(address indexed src, uint wad);\n\n  constructor(address usdcAddress) ERC20(_name, _symbol) {\n    _usdcAddress = usdcAddress;\n    _usdcContract = ERC20(_usdcAddress);\n  }\n\n  function getUSDCAddress() public view returns(address) {\n    return _usdcAddress;\n  }\n\n  function getBalanceOnUSDC() public view returns(uint256) {\n    return _usdcContract.balanceOf(_msgSender());\n  }\n\n  function getUSDCDecimals() public view returns(uint8) {\n    return _usdcContract.decimals();\n  }\n\n  function getMessage() public pure returns(string memory) {\n    return _message;\n  }\n\n  function decimals() public pure override returns (uint8) {\n    return 18;\n  }\n\n  function deposit(uint256 usdcAmount) public {\n    _usdcContract.transferFrom(_msgSender(), address(this), usdcAmount);\n    uint256 hkdtAmount = usdcAmount.mul(USDC_TO_HKDT_RATE).div(USDC_TO_HKDT_DECIMALS).mul(10 ** decimals()).div(10 ** _usdcContract.decimals());\n    _mint(_msgSender(), hkdtAmount);\n    emit Deposit(_msgSender(), usdcAmount);\n  }\n\n  function withdraw(uint256 hkdtAmount) public {\n    uint256 usdcAmount = hkdtAmount.mul(USDC_TO_HKDT_DECIMALS).div(USDC_TO_HKDT_RATE).mul(10 ** _usdcContract.decimals()).div(10 ** decimals());\n    _burn(_msgSender(), hkdtAmount);\n    _usdcContract.transfer(_msgSender(), usdcAmount);\n    emit Withdrawal(_msgSender(), hkdtAmount);\n  }\n\n}\n",
  "sourcePath": "/Users/philip/workspaces/workspace-blockchain/hkdt_stablecoin/contracts/HKDT.sol",
  "compiler": {
    "name": "solc",
    "version": "0.8.17+commit.8df45f5f.Emscripten.clang"
  },
  "schemaVersion": "3.4.10",
  "updatedAt": "2023-02-06T10:57:26.871Z",
  "devdoc": {
    "kind": "dev",
    "methods": {
      "allowance(address,address)": {
        "details": "See {IERC20-allowance}."
      },
      "approve(address,uint256)": {
        "details": "See {IERC20-approve}. NOTE: If `amount` is the maximum `uint256`, the allowance is not updated on `transferFrom`. This is semantically equivalent to an infinite approval. Requirements: - `spender` cannot be the zero address."
      },
      "balanceOf(address)": {
        "details": "See {IERC20-balanceOf}."
      },
      "decimals()": {
        "details": "Returns the number of decimals used to get its user representation. For example, if `decimals` equals `2`, a balance of `505` tokens should be displayed to a user as `5.05` (`505 / 10 ** 2`). Tokens usually opt for a value of 18, imitating the relationship between Ether and Wei. This is the value {ERC20} uses, unless this function is overridden; NOTE: This information is only used for _display_ purposes: it in no way affects any of the arithmetic of the contract, including {IERC20-balanceOf} and {IERC20-transfer}."
      },
      "decreaseAllowance(address,uint256)": {
        "details": "Atomically decreases the allowance granted to `spender` by the caller. This is an alternative to {approve} that can be used as a mitigation for problems described in {IERC20-approve}. Emits an {Approval} event indicating the updated allowance. Requirements: - `spender` cannot be the zero address. - `spender` must have allowance for the caller of at least `subtractedValue`."
      },
      "increaseAllowance(address,uint256)": {
        "details": "Atomically increases the allowance granted to `spender` by the caller. This is an alternative to {approve} that can be used as a mitigation for problems described in {IERC20-approve}. Emits an {Approval} event indicating the updated allowance. Requirements: - `spender` cannot be the zero address."
      },
      "name()": {
        "details": "Returns the name of the token."
      },
      "symbol()": {
        "details": "Returns the symbol of the token, usually a shorter version of the name."
      },
      "totalSupply()": {
        "details": "See {IERC20-totalSupply}."
      },
      "transfer(address,uint256)": {
        "details": "See {IERC20-transfer}. Requirements: - `to` cannot be the zero address. - the caller must have a balance of at least `amount`."
      },
      "transferFrom(address,address,uint256)": {
        "details": "See {IERC20-transferFrom}. Emits an {Approval} event indicating the updated allowance. This is not required by the EIP. See the note at the beginning of {ERC20}. NOTE: Does not update the allowance if the current allowance is the maximum `uint256`. Requirements: - `from` and `to` cannot be the zero address. - `from` must have a balance of at least `amount`. - the caller must have allowance for ``from``'s tokens of at least `amount`."
      }
    },
    "version": 1
  },
  "userdoc": {
    "kind": "user",
    "methods": {},
    "version": 1
  }
}